00COTAHIST.2026BOVESPA 20260417                                                                                                                                                                                                                      
012026041714HTEK11      010IT NOW HCARECI           R$  000000000547000000000055140000000005443000000000549400000000054920000000005466000000000554800334000000000000000775000000000004258133000000000000009999123100000010000000000000BRHTEKCTF004100
012026041712HTMX11      010FII HOTEL MXCI           R$  000000001377000000000137900000000013685000000001372600000000136850000000013685000000001372300429000000000000002299000000000031556896000000000000009999123100000010000000000000BRHTMXCTF000303
012026041712HUCG11      010FII UNIMED CCI           R$  000000000920000000000092000000000009199000000000919900000000092000000000008601000000000960000003000000000000000013000000000000119598000000000000009999123100000010000000000000BRHUCGCTF004129
012026041702HYPE3       010HYPERA      ON      NM   R$  000000000238000000000024050000000002332000000000235200000000023450000000002342000000000234613501000000000004035500000000009494345000000000000000009999123100000010000000000000BRHYPEACNOR0151
012026041735JBSS32      010JBS N.V.    DR2          R$  000000000891000000000089170000000008745000000000880500000000087760000000008775000000000880510503000000000000889066000000007828397732000000000000009999123100000010000000000000BRJBSSBDR002101
012026041734I1EX34      010IDEX CORP   DRN          R$  000000000512000000000051200000000005120000000000512000000000051200000000000000000000000556700001000000000000000007000000000000035840000000000000009999123100000010000000000000BRI1EXBDR009122
012026041734I1HG34      010INT EXCHANGEDRN ED       R$  000000001232800000000123280000000012328000000001232800000000123280000000000000000000000000000001000000000000000001000000000000012328000000000000009999123100000010000000000000BRI1HGBDR007109
012026041734I1PC34      010INTERNATIONADRN          R$  000000001861300000000186130000000018613000000001861300000000186130000000014700000000000000000001000000000000000001000000000000018613000000000000009999123100000010000000000000BRI1PCBDR009126
012026041734I1PG34      010IPG PHOTONICDRN          R$  000000003160000000000317500000000031600000000003167500000000317500000000000000000000003180000004000000000000000004000000000000126700000000000000009999123100000010000000000000BRI1PGBDR000100
012026041778ITUBE449    070ITUB        PN      N1000R$  000000000033600000000003360000000000308000000000031700000000003150000000000000000000000000000015000000000000021700000000000006899000000000000448802026051500000010000000000000BRITUBACNPR1367
012026041782PRIOQ465    080PRIOE       ON      NM000R$  000000000002900000000000290000000000021000000000002600000000000210000000000002000000000003600009000000000000049600000000000001326900000000000465002026051500000010000000000000BRPRIOACNOR1110
99COTAHIST.2026BOVESPA 2026041700000023021                                                                                                                                                                                                           
